:100000000C942A000C9434000C9434000C943400AA
:100010000C9434000C9434000C9434000C94340090
:100020000C9434000C9434000C9434000C94340080
:100030000C9434000C9434000C9434000C94340070
:100040000C9434000C9434000C9434000C94340060
:100050000C94340011241FBECFE5D8E0DEBFCDBF25
:100060000E94C3060C94EA060C940000DF93CF9321
:1000700000D000D00F92CDB7DEB789836A834B835F
:100080008A81883008F0D5C08981843008F0D1C0D9
:100090008981282F30E03D832C838C819D818130A4
:1000A000910509F443C02C813D81223031052CF4A7
:1000B0008C819D81009771F0BCC02C813D812230E4
:1000C000310509F45FC08C819D818330910509F46D
:1000D00085C0AFC08B818130A1F4AAE3B0E0EAE330
:1000E000F0E08081482F8A81282F30E081E090E085
:1000F000022E02C0880F991F0A94E2F7842B8C937A
:1001000098C0AAE3B0E0EAE3F0E08081482F8A815A
:10011000282F30E081E090E0022E02C0880F991F66
:100120000A94E2F7809584238C9383C08B8181307D
:10013000A1F4A7E3B0E0E7E3F0E08081482F8A81F3
:10014000282F30E081E090E0022E02C0880F991F36
:100150000A94E2F7842B8C936CC0A7E3B0E0E7E34A
:10016000F0E08081482F8A81282F30E081E090E004
:10017000022E02C0880F991F0A94E2F7809584230B
:100180008C9357C08B818130A1F4A4E3B0E0E4E309
:10019000F0E08081482F8A81282F30E081E090E0D4
:1001A000022E02C0880F991F0A94E2F7842B8C93C9
:1001B00040C0A4E3B0E0E4E3F0E08081482F8A810E
:1001C000282F30E081E090E0022E02C0880F991FB6
:1001D0000A94E2F7809584238C932BC08B81813025
:1001E000A1F4A1E3B0E0E1E3F0E08081482F8A814F
:1001F000282F30E081E090E0022E02C0880F991F86
:100200000A94E2F7842B8C9314C0A1E3B0E0E1E3FD
:10021000F0E08081482F8A81282F30E081E090E053
:10022000022E02C0880F991F0A94E2F7809584235A
:100230008C930F900F900F900F900F90CF91DF91B4
:100240000895DF93CF9300D000D00F92CDB7DEB7E3
:1002500089836A834B838A81883008F0D5C089817D
:10026000843008F0D1C08981282F30E03D832C8371
:100270008C819D818130910509F443C02C813D81A1
:10028000223031052CF48C819D81009771F0BCC027
:100290002C813D812230310509F45FC08C819D8124
:1002A0008330910509F485C0AFC08B818130A1F402
:1002B000ABE3B0E0EBE3F0E08081482F8A81282FA8
:1002C00030E081E090E0022E02C0880F991F0A946E
:1002D000E2F7842B8C9398C0ABE3B0E0EBE3F0E063
:1002E0008081482F8A81282F30E081E090E0022E23
:1002F00002C0880F991F0A94E2F7809584238C939B
:1003000083C08B818130A1F4A8E3B0E0E8E3F0E0A2
:100310008081482F8A81282F30E081E090E0022EF2
:1003200002C0880F991F0A94E2F7842B8C936CC04B
:10033000A8E3B0E0E8E3F0E08081482F8A81282F2D
:1003400030E081E090E0022E02C0880F991F0A94ED
:10035000E2F7809584238C9357C08B818130A1F480
:10036000A5E3B0E0E5E3F0E08081482F8A81282F03
:1003700030E081E090E0022E02C0880F991F0A94BD
:10038000E2F7842B8C9340C0A5E3B0E0E5E3F0E016
:100390008081482F8A81282F30E081E090E0022E72
:1003A00002C0880F991F0A94E2F7809584238C93EA
:1003B0002BC08B818130A1F4A2E3B0E0E2E3F0E056
:1003C0008081482F8A81282F30E081E090E0022E42
:1003D00002C0880F991F0A94E2F7842B8C9314C0F3
:1003E000A2E3B0E0E2E3F0E08081482F8A81282F89
:1003F00030E081E090E0022E02C0880F991F0A943D
:10040000E2F7809584238C930F900F900F900F90BC
:100410000F90CF91DF910895DF93CF9300D000D05C
:100420000F92CDB7DEB78A836B8319828B818830B8
:1004300008F084C08A81843008F080C08A81282F27
:1004400030E03D832C834C815D814130510579F151
:100450008C819D818230910534F42C813D81211560
:10046000310569F06BC04C815D8142305105B9F1B5
:100470008C819D818330910509F449C05FC0E9E317
:10048000F0E08081282F30E08B81882F90E0A90157
:1004900002C0559547958A95E2F7CA018170907020
:1004A000882319F081E0898349C0198247C0E6E3B7
:1004B000F0E08081282F30E08B81882F90E0A90127
:1004C00002C0559547958A95E2F7CA0181709070F0
:1004D000882319F081E0898331C019822FC0E3E3BA
:1004E000F0E08081282F30E08B81882F90E0A901F7
:1004F00002C0559547958A95E2F7CA0181709070C0
:10050000882319F081E0898319C0198217C0E0E3BC
:10051000F0E08081282F30E08B81882F90E0A901C6
:1005200002C0559547958A95E2F7CA01817090708F
:10053000882319F081E0898301C0198289810F9095
:100540000F900F900F900F90CF91DF910895DF9350
:10055000CF9300D000D0CDB7DEB789836A8389817D
:10056000843090F58981282F30E03C832B838B8168
:100570009C8181309105D1F02B813C812230310565
:100580002CF48B819C81009761F01EC02B813C81F3
:100590002230310581F08B819C818330910581F07F
:1005A00013C0EAE3F0E08A8180830EC0E7E3F0E065
:1005B0008A81808309C0E4E3F0E08A81808304C0FB
:1005C000E1E3F0E08A8180830F900F900F900F900D
:1005D000CF91DF910895DF93CF9300D000D0CDB7B6
:1005E000DEB789836A838981843090F58981282FD9
:1005F00030E03C832B838B819C8181309105D1F04D
:100600002B813C81223031052CF48B819C81009719
:1006100061F01EC02B813C812230310581F08B813D
:100620009C818330910581F013C0EBE3F0E08A8177
:1006300080830EC0E8E3F0E08A81808309C0E5E3AF
:10064000F0E08A81808304C0E2E3F0E08A81808365
:100650000F900F900F900F90CF91DF910895DF933F
:10066000CF9300D000D0CDB7DEB78A8319828A81BC
:10067000843090F58A81282F30E03C832B838B8156
:100680009C8181309105D1F02B813C812230310554
:100690002CF48B819C81009761F01EC02B813C81E2
:1006A0002230310581F08B819C818330910581F06E
:1006B00013C0E9E3F0E0808189830EC0E6E3F0E057
:1006C0008081898309C0E3E3F0E08081898304C0ED
:1006D000E0E3F0E08081898389810F900F900F9093
:1006E0000F90CF91DF910895DF93CF9300D0CDB7D6
:1006F000DEB79A838983A0E2B0E0E981FA81828142
:100700008C93A1E2B0E0E981FA8180818C93A2E22E
:10071000B0E0E981FA818181880F8C93A6E5B0E091
:10072000E6E5F0E0808184608C930F900F90CF918C
:10073000DF910895DF93CF93CDB7DEB7E6E5F0E024
:1007400084EA8083E6E5F0E080818823DCF7CF91BE
:10075000DF910895DF93CF93CDB7DEB7E6E5F0E004
:1007600084E98083CF91DF910895DF93CF930F9237
:10077000CDB7DEB78983E3E2F0E089818083E6E5E7
:10078000F0E084E88083E6E5F0E080818823DCF710
:100790000F90CF91DF910895DF93CF93CDB7DEB760
:1007A000E6E5F0E084EC8083E6E5F0E080818823F4
:1007B000DCF7E3E2F0E08081CF91DF910895DF93F1
:1007C000CF93CDB7DEB7E6E5F0E084E88083E6E5D9
:1007D000F0E080818823DCF7E3E2F0E08081CF91D4
:1007E000DF910895DF93CF930F92CDB7DEB7E1E2AB
:1007F000F0E08081887F898389810F90CF91DF919C
:100800000895DF93CF9300D000D000D0CDB7DEB7EE
:100810009C838B831A821982ABE2B0E0EBE2F0E0BA
:10082000808182608C93AAE2B0E0EAE2F0E080810D
:1008300080618C93AAE2B0E0EAE2F0E08081886017
:100840008C93EB81FC8183819481CC01A0E0B0E0AA
:10085000880F991FAA1FBB1F880F991FAA1FBB1FB4
:10086000880F991FAA1FBB1F9C01AD0180E092E178
:10087000AAE7B0E0BC01CD010E94C806DA01C901B7
:1008800001979A838983E0E4F0E089819A81892F36
:1008900099278083E9E2F0E089818083A0E4B0E0D9
:1008A000E0E4F0E0808180688C93EB81FC818281C0
:1008B000282F30E03E832D838D819E8187309105E6
:1008C00009F449C02D813E81283031055CF48D81C9
:1008D0009E818530910599F02D813E81263031052C
:1008E00021F17AC08D819E818830910509F449C03B
:1008F0002D813E812930310509F459C06DC0A0E435
:10090000B0E0E0E4F0E080818D7F8C93A0E4B0E083
:10091000E0E4F0E080818B7F8C93AAE2B0E0EAE231
:10092000F0E080818B7F8C9357C0A0E4B0E0E0E4DE
:10093000F0E0808182608C93A0E4B0E0E0E4F0E03D
:1009400080818B7F8C93AAE2B0E0EAE2F0E08081C4
:100950008B7F8C9341C0A0E4B0E0E0E4F0E08081C4
:100960008D7F8C93A0E4B0E0E0E4F0E080818460CF
:100970008C93AAE2B0E0EAE2F0E080818B7F8C9376
:100980002BC0A0E4B0E0E0E4F0E0808182608C93D2
:10099000A0E4B0E0E0E4F0E0808184608C93AAE21F
:1009A000B0E0EAE2F0E080818B7F8C9315C0A0E498
:1009B000B0E0E0E4F0E0808182608C93A0E4B0E0FD
:1009C000E0E4F0E0808184608C93AAE2B0E0EAE2A7
:1009D000F0E0808184608C93A0E4B0E0E0E4F0E09B
:1009E0008081282F2F7CEB81FC818081882F90E0F3
:1009F00082959295907F9827807F9827822B8C9361
:100A0000EB81FC818181882341F4A0E4B0E0E0E443
:100A1000F0E08081877F8C9307C0A0E4B0E0E0E441
:100A2000F0E0808188608C9326960FB6F894DEBF44
:100A30000FBECDBFCF91DF910895DF93CF930F927B
:100A4000CDB7DEB78983ECE2F0E089818083EBE209
:100A5000F0E08081882F90E0807490700097B9F367
:100A6000ABE2B0E0EBE2F0E0808180648C930F9029
:100A7000CF91DF910895DF93CF93CDB7DEB7EBE24F
:100A8000F0E080818823DCF7ECE2F0E08081CF9118
:100A9000DF910895DF93CF9300D00F92CDB7DEB7EB
:100AA0009B838A8319820EC08981282F30E08A8136
:100AB0009B81FC01E20FF31F80810E941D0589814B
:100AC0008F5F89838981282F30E08A819B81FC0197
:100AD000E20FF31F8081882339F70F900F900F905A
:100AE000CF91DF9108950F931F93DF93CF9300D0A1
:100AF0000F92CDB7DEB79B838A8319828981282F15
:100B000030E08A819B818C01020F131F0E943B05FC
:100B1000F80180830FC089818F5F89838981282FA5
:100B200030E08A819B818C01020F131F0E943B05DC
:100B3000F80180838981282F30E08A819B81FC0124
:100B4000E20FF31F8081833231F78981282F30E053
:100B50008A819B81FC01E20FF31F10820F900F909E
:100B60000F90CF91DF911F910F910895DF93CF9355
:100B7000CDB7DEB7CF91DF910895DF93CF93CDB797
:100B8000DEB7CF91DF910895DF93CF93CDB7DEB776
:100B9000CF91DF910895DF93CF93CDB7DEB782E099
:100BA00060E041E00E94360082E061E041E00E94A6
:100BB000360080E060E00E94E005CF91DF9108956B
:100BC000DF93CF9300D000D0CDB7DEB789836A839F
:100BD0008981282F30E03C832B838B819C8181305D
:100BE0009105A1F02B813C8122303105D1F08B8120
:100BF0009C81009701F582E060E040E00E942101C5
:100C000082E061E040E00E94210115C082E060E0E6
:100C100040E00E94210182E061E041E00E94210168
:100C20000AC082E060E041E00E94210182E061E0D0
:100C300040E00E9421010F900F900F900F90CF91F4
:100C4000DF910895DF93CF9300D000D0CDB7DEB70A
:100C50009A8389836B830E949A030E94F2038830EF
:100C600011F01C8228C089819A8180709770880F4A
:100C7000892F881F990B9195806A0E94B5030E9465
:100C8000F203883111F01C8216C089810E94B503DD
:100C90000E94F203883211F01C820DC08B810E94E9
:100CA000B5030E94F203883211F01C8204C00E9436
:100CB000AA0381E08C838C810F900F900F900F908E
:100CC000CF91DF910895DF93CF9300D000D00F92A2
:100CD000CDB7DEB79A8389837C836B830E949A03A6
:100CE0000E94F203883011F01D8244C089819A81EC
:100CF00080709770880F892F881F990B9195806A53
:100D00000E94B5030E94F203883111F01D8232C0A7
:100D100089810E94B5030E94F203883211F01D827E
:100D200029C00E949A030E94F203803111F01D82B3
:100D300021C089819A8180709770880F892F881FC0
:100D4000990B9195816A0E94B5030E94F203803449
:100D500011F01D820FC00E94DF03EB81FC818083B4
:100D60000E94F203883511F01D8204C00E94AA037C
:100D700081E08D838D810F900F900F900F900F90D9
:100D8000CF91DF910895DF93CF93CDB7DEB7FFCF3B
:100D9000A1E21A2EAA1BBB1BFD010DC0AA1FBB1F7F
:100DA000EE1FFF1FA217B307E407F50720F0A21BF1
:100DB000B30BE40BF50B661F771F881F991F1A945E
:100DC00069F760957095809590959B01AC01BD0188
:080DD000CF010895F894FFCF54
:00000001FF
